{
  "_format": "hh-sol-artifact-1",
  "contractName": "CorgiCoin",
  "sourceName": "contracts/Corgi.sol",
  "abi": [
    {
      "inputs": [],
      "stateMutability": "nonpayable",
      "type": "constructor"
    },
    {
      "inputs": [
        {
          "internalType": "address",
          "name": "spender",
          "type": "address"
        },
        {
          "internalType": "uint256",
          "name": "allowance",
          "type": "uint256"
        },
        {
          "internalType": "uint256",
          "name": "needed",
          "type": "uint256"
        }
      ],
      "name": "ERC20InsufficientAllowance",
      "type": "error"
    },
    {
      "inputs": [
        {
          "internalType": "address",
          "name": "sender",
          "type": "address"
        },
        {
          "internalType": "uint256",
          "name": "balance",
          "type": "uint256"
        },
        {
          "internalType": "uint256",
          "name": "needed",
          "type": "uint256"
        }
      ],
      "name": "ERC20InsufficientBalance",
      "type": "error"
    },
    {
      "inputs": [
        {
          "internalType": "address",
          "name": "approver",
          "type": "address"
        }
      ],
      "name": "ERC20InvalidApprover",
      "type": "error"
    },
    {
      "inputs": [
        {
          "internalType": "address",
          "name": "receiver",
          "type": "address"
        }
      ],
      "name": "ERC20InvalidReceiver",
      "type": "error"
    },
    {
      "inputs": [
        {
          "internalType": "address",
          "name": "sender",
          "type": "address"
        }
      ],
      "name": "ERC20InvalidSender",
      "type": "error"
    },
    {
      "inputs": [
        {
          "internalType": "address",
          "name": "spender",
          "type": "address"
        }
      ],
      "name": "ERC20InvalidSpender",
      "type": "error"
    },
    {
      "inputs": [
        {
          "internalType": "address",
          "name": "owner",
          "type": "address"
        }
      ],
      "name": "OwnableInvalidOwner",
      "type": "error"
    },
    {
      "inputs": [
        {
          "internalType": "address",
          "name": "account",
          "type": "address"
        }
      ],
      "name": "OwnableUnauthorizedAccount",
      "type": "error"
    },
    {
      "anonymous": false,
      "inputs": [
        {
          "indexed": true,
          "internalType": "address",
          "name": "owner",
          "type": "address"
        },
        {
          "indexed": true,
          "internalType": "address",
          "name": "spender",
          "type": "address"
        },
        {
          "indexed": false,
          "internalType": "uint256",
          "name": "value",
          "type": "uint256"
        }
      ],
      "name": "Approval",
      "type": "event"
    },
    {
      "anonymous": false,
      "inputs": [
        {
          "indexed": true,
          "internalType": "address",
          "name": "previousOwner",
          "type": "address"
        },
        {
          "indexed": true,
          "internalType": "address",
          "name": "newOwner",
          "type": "address"
        }
      ],
      "name": "OwnershipTransferred",
      "type": "event"
    },
    {
      "anonymous": false,
      "inputs": [
        {
          "indexed": true,
          "internalType": "address",
          "name": "from",
          "type": "address"
        },
        {
          "indexed": true,
          "internalType": "address",
          "name": "to",
          "type": "address"
        },
        {
          "indexed": false,
          "internalType": "uint256",
          "name": "value",
          "type": "uint256"
        }
      ],
      "name": "Transfer",
      "type": "event"
    },
    {
      "inputs": [],
      "name": "TOTAL_SUPPLY",
      "outputs": [
        {
          "internalType": "uint256",
          "name": "",
          "type": "uint256"
        }
      ],
      "stateMutability": "view",
      "type": "function"
    },
    {
      "inputs": [
        {
          "internalType": "address",
          "name": "owner",
          "type": "address"
        },
        {
          "internalType": "address",
          "name": "spender",
          "type": "address"
        }
      ],
      "name": "allowance",
      "outputs": [
        {
          "internalType": "uint256",
          "name": "",
          "type": "uint256"
        }
      ],
      "stateMutability": "view",
      "type": "function"
    },
    {
      "inputs": [
        {
          "internalType": "address",
          "name": "spender",
          "type": "address"
        },
        {
          "internalType": "uint256",
          "name": "value",
          "type": "uint256"
        }
      ],
      "name": "approve",
      "outputs": [
        {
          "internalType": "bool",
          "name": "",
          "type": "bool"
        }
      ],
      "stateMutability": "nonpayable",
      "type": "function"
    },
    {
      "inputs": [
        {
          "internalType": "address",
          "name": "account",
          "type": "address"
        }
      ],
      "name": "balanceOf",
      "outputs": [
        {
          "internalType": "uint256",
          "name": "",
          "type": "uint256"
        }
      ],
      "stateMutability": "view",
      "type": "function"
    },
    {
      "inputs": [
        {
          "internalType": "uint256",
          "name": "amount",
          "type": "uint256"
        }
      ],
      "name": "burn",
      "outputs": [],
      "stateMutability": "nonpayable",
      "type": "function"
    },
    {
      "inputs": [],
      "name": "decimals",
      "outputs": [
        {
          "internalType": "uint8",
          "name": "",
          "type": "uint8"
        }
      ],
      "stateMutability": "view",
      "type": "function"
    },
    {
      "inputs": [],
      "name": "name",
      "outputs": [
        {
          "internalType": "string",
          "name": "",
          "type": "string"
        }
      ],
      "stateMutability": "view",
      "type": "function"
    },
    {
      "inputs": [],
      "name": "owner",
      "outputs": [
        {
          "internalType": "address",
          "name": "",
          "type": "address"
        }
      ],
      "stateMutability": "view",
      "type": "function"
    },
    {
      "inputs": [],
      "name": "renounceOwnership",
      "outputs": [],
      "stateMutability": "nonpayable",
      "type": "function"
    },
    {
      "inputs": [],
      "name": "symbol",
      "outputs": [
        {
          "internalType": "string",
          "name": "",
          "type": "string"
        }
      ],
      "stateMutability": "view",
      "type": "function"
    },
    {
      "inputs": [],
      "name": "totalSupply",
      "outputs": [
        {
          "internalType": "uint256",
          "name": "",
          "type": "uint256"
        }
      ],
      "stateMutability": "view",
      "type": "function"
    },
    {
      "inputs": [
        {
          "internalType": "address",
          "name": "to",
          "type": "address"
        },
        {
          "internalType": "uint256",
          "name": "value",
          "type": "uint256"
        }
      ],
      "name": "transfer",
      "outputs": [
        {
          "internalType": "bool",
          "name": "",
          "type": "bool"
        }
      ],
      "stateMutability": "nonpayable",
      "type": "function"
    },
    {
      "inputs": [
        {
          "internalType": "address",
          "name": "from",
          "type": "address"
        },
        {
          "internalType": "address",
          "name": "to",
          "type": "address"
        },
        {
          "internalType": "uint256",
          "name": "value",
          "type": "uint256"
        }
      ],
      "name": "transferFrom",
      "outputs": [
        {
          "internalType": "bool",
          "name": "",
          "type": "bool"
        }
      ],
      "stateMutability": "nonpayable",
      "type": "function"
    },
    {
      "inputs": [
        {
          "internalType": "address",
          "name": "newOwner",
          "type": "address"
        }
      ],
      "name": "transferOwnership",
      "outputs": [],
      "stateMutability": "nonpayable",
      "type": "function"
    }
  ],
  "bytecode": "0x608060405234801561001057600080fd5b50336040518060400160405280600981526020017f436f726769436f696e00000000000000000000000000000000000000000000008152506040518060400160405280600581526020017f434f524749000000000000000000000000000000000000000000000000000000815250816003908161008d9190610707565b50806004908161009d9190610707565b505050600073ffffffffffffffffffffffffffffffffffffffff168173ffffffffffffffffffffffffffffffffffffffff16036101125760006040517f1e4fbdf7000000000000000000000000000000000000000000000000000000008152600401610109919061081a565b60405180910390fd5b6101218161014460201b60201c565b5061013f336c01431e0fae6d7217caa000000061020a60201b60201c565b6108f9565b6000600560009054906101000a900473ffffffffffffffffffffffffffffffffffffffff16905081600560006101000a81548173ffffffffffffffffffffffffffffffffffffffff021916908373ffffffffffffffffffffffffffffffffffffffff1602179055508173ffffffffffffffffffffffffffffffffffffffff168173ffffffffffffffffffffffffffffffffffffffff167f8be0079c531659141344cd1fd0a4f28419497f9722a3daafe3b4186f6b6457e060405160405180910390a35050565b600073ffffffffffffffffffffffffffffffffffffffff168273ffffffffffffffffffffffffffffffffffffffff160361027c5760006040517fec442f05000000000000000000000000000000000000000000000000000000008152600401610273919061081a565b60405180910390fd5b61028e6000838361029260201b60201c565b5050565b600073ffffffffffffffffffffffffffffffffffffffff168373ffffffffffffffffffffffffffffffffffffffff16036102e45780600260008282546102d89190610864565b925050819055506103b7565b60008060008573ffffffffffffffffffffffffffffffffffffffff1673ffffffffffffffffffffffffffffffffffffffff16815260200190815260200160002054905081811015610370578381836040517fe450d38c000000000000000000000000000000000000000000000000000000008152600401610367939291906108a7565b60405180910390fd5b8181036000808673ffffffffffffffffffffffffffffffffffffffff1673ffffffffffffffffffffffffffffffffffffffff16815260200190815260200160002081905550505b600073ffffffffffffffffffffffffffffffffffffffff168273ffffffffffffffffffffffffffffffffffffffff1603610400578060026000828254039250508190555061044d565b806000808473ffffffffffffffffffffffffffffffffffffffff1673ffffffffffffffffffffffffffffffffffffffff168152602001908152602001600020600082825401925050819055505b8173ffffffffffffffffffffffffffffffffffffffff168373ffffffffffffffffffffffffffffffffffffffff167fddf252ad1be2c89b69c2b068fc378daa952ba7f163c4a11628f55a4df523b3ef836040516104aa91906108de565b60405180910390a3505050565b600081519050919050565b7f4e487b7100000000000000000000000000000000000000000000000000000000600052604160045260246000fd5b7f4e487b7100000000000000000000000000000000000000000000000000000000600052602260045260246000fd5b6000600282049050600182168061053857607f821691505b60208210810361054b5761054a6104f1565b5b50919050565b60008190508160005260206000209050919050565b60006020601f8301049050919050565b600082821b905092915050565b6000600883026105b37fffffffffffffffffffffffffffffffffffffffffffffffffffffffffffffffff82610576565b6105bd8683610576565b95508019841693508086168417925050509392505050565b6000819050919050565b6000819050919050565b60006106046105ff6105fa846105d5565b6105df565b6105d5565b9050919050565b6000819050919050565b61061e836105e9565b61063261062a8261060b565b848454610583565b825550505050565b600090565b61064761063a565b610652818484610615565b505050565b5b818110156106765761066b60008261063f565b600181019050610658565b5050565b601f8211156106bb5761068c81610551565b61069584610566565b810160208510156106a4578190505b6106b86106b085610566565b830182610657565b50505b505050565b600082821c905092915050565b60006106de600019846008026106c0565b1980831691505092915050565b60006106f783836106cd565b9150826002028217905092915050565b610710826104b7565b67ffffffffffffffff811115610729576107286104c2565b5b6107338254610520565b61073e82828561067a565b600060209050601f831160018114610771576000841561075f578287015190505b61076985826106eb565b8655506107d1565b601f19841661077f86610551565b60005b828110156107a757848901518255600182019150602085019450602081019050610782565b868310156107c457848901516107c0601f8916826106cd565b8355505b6001600288020188555050505b505050505050565b600073ffffffffffffffffffffffffffffffffffffffff82169050919050565b6000610804826107d9565b9050919050565b610814816107f9565b82525050565b600060208201905061082f600083018461080b565b92915050565b7f4e487b7100000000000000000000000000000000000000000000000000000000600052601160045260246000fd5b600061086f826105d5565b915061087a836105d5565b925082820190508082111561089257610891610835565b5b92915050565b6108a1816105d5565b82525050565b60006060820190506108bc600083018661080b565b6108c96020830185610898565b6108d66040830184610898565b949350505050565b60006020820190506108f36000830184610898565b92915050565b611208806109086000396000f3fe608060405234801561001057600080fd5b50600436106100ea5760003560e01c8063715018a61161008c57806395d89b411161006657806395d89b411461023b578063a9059cbb14610259578063dd62ed3e14610289578063f2fde38b146102b9576100ea565b8063715018a6146101f55780638da5cb5b146101ff578063902d55a51461021d576100ea565b806323b872dd116100c857806323b872dd1461015b578063313ce5671461018b57806342966c68146101a957806370a08231146101c5576100ea565b806306fdde03146100ef578063095ea7b31461010d57806318160ddd1461013d575b600080fd5b6100f76102d5565b6040516101049190610e2f565b60405180910390f35b61012760048036038101906101229190610eea565b610367565b6040516101349190610f45565b60405180910390f35b61014561038a565b6040516101529190610f6f565b60405180910390f35b61017560048036038101906101709190610f8a565b610394565b6040516101829190610f45565b60405180910390f35b6101936103c3565b6040516101a09190610ff9565b60405180910390f35b6101c360048036038101906101be9190611014565b6103cc565b005b6101df60048036038101906101da9190611041565b6103d9565b6040516101ec9190610f6f565b60405180910390f35b6101fd610421565b005b610207610435565b604051610214919061107d565b60405180910390f35b61022561045f565b6040516102329190610f6f565b60405180910390f35b610243610470565b6040516102509190610e2f565b60405180910390f35b610273600480360381019061026e9190610eea565b610502565b6040516102809190610f45565b60405180910390f35b6102a3600480360381019061029e9190611098565b610525565b6040516102b09190610f6f565b60405180910390f35b6102d360048036038101906102ce9190611041565b6105ac565b005b6060600380546102e490611107565b80601f016020809104026020016040519081016040528092919081815260200182805461031090611107565b801561035d5780601f106103325761010080835404028352916020019161035d565b820191906000526020600020905b81548152906001019060200180831161034057829003601f168201915b5050505050905090565b600080610372610632565b905061037f81858561063a565b600191505092915050565b6000600254905090565b60008061039f610632565b90506103ac85828561064c565b6103b78585856106e0565b60019150509392505050565b60006012905090565b6103d633826107d4565b50565b60008060008373ffffffffffffffffffffffffffffffffffffffff1673ffffffffffffffffffffffffffffffffffffffff168152602001908152602001600020549050919050565b610429610856565b61043360006108dd565b565b6000600560009054906101000a900473ffffffffffffffffffffffffffffffffffffffff16905090565b6c01431e0fae6d7217caa000000081565b60606004805461047f90611107565b80601f01602080910402602001604051908101604052809291908181526020018280546104ab90611107565b80156104f85780601f106104cd576101008083540402835291602001916104f8565b820191906000526020600020905b8154815290600101906020018083116104db57829003601f168201915b5050505050905090565b60008061050d610632565b905061051a8185856106e0565b600191505092915050565b6000600160008473ffffffffffffffffffffffffffffffffffffffff1673ffffffffffffffffffffffffffffffffffffffff16815260200190815260200160002060008373ffffffffffffffffffffffffffffffffffffffff1673ffffffffffffffffffffffffffffffffffffffff16815260200190815260200160002054905092915050565b6105b4610856565b600073ffffffffffffffffffffffffffffffffffffffff168173ffffffffffffffffffffffffffffffffffffffff16036106265760006040517f1e4fbdf700000000000000000000000000000000000000000000000000000000815260040161061d919061107d565b60405180910390fd5b61062f816108dd565b50565b600033905090565b61064783838360016109a3565b505050565b60006106588484610525565b90507fffffffffffffffffffffffffffffffffffffffffffffffffffffffffffffffff81146106da57818110156106ca578281836040517ffb8f41b20000000000000000000000000000000000000000000000000000000081526004016106c193929190611138565b60405180910390fd5b6106d9848484840360006109a3565b5b50505050565b600073ffffffffffffffffffffffffffffffffffffffff168373ffffffffffffffffffffffffffffffffffffffff16036107525760006040517f96c6fd1e000000000000000000000000000000000000000000000000000000008152600401610749919061107d565b60405180910390fd5b600073ffffffffffffffffffffffffffffffffffffffff168273ffffffffffffffffffffffffffffffffffffffff16036107c45760006040517fec442f050000000000000000000000000000000000000000000000000000000081526004016107bb919061107d565b60405180910390fd5b6107cf838383610b7a565b505050565b600073ffffffffffffffffffffffffffffffffffffffff168273ffffffffffffffffffffffffffffffffffffffff16036108465760006040517f96c6fd1e00000000000000000000000000000000000000000000000000000000815260040161083d919061107d565b60405180910390fd5b61085282600083610b7a565b5050565b61085e610632565b73ffffffffffffffffffffffffffffffffffffffff1661087c610435565b73ffffffffffffffffffffffffffffffffffffffff16146108db5761089f610632565b6040517f118cdaa70000000000000000000000000000000000000000000000000000000081526004016108d2919061107d565b60405180910390fd5b565b6000600560009054906101000a900473ffffffffffffffffffffffffffffffffffffffff16905081600560006101000a81548173ffffffffffffffffffffffffffffffffffffffff021916908373ffffffffffffffffffffffffffffffffffffffff1602179055508173ffffffffffffffffffffffffffffffffffffffff168173ffffffffffffffffffffffffffffffffffffffff167f8be0079c531659141344cd1fd0a4f28419497f9722a3daafe3b4186f6b6457e060405160405180910390a35050565b600073ffffffffffffffffffffffffffffffffffffffff168473ffffffffffffffffffffffffffffffffffffffff1603610a155760006040517fe602df05000000000000000000000000000000000000000000000000000000008152600401610a0c919061107d565b60405180910390fd5b600073ffffffffffffffffffffffffffffffffffffffff168373ffffffffffffffffffffffffffffffffffffffff1603610a875760006040517f94280d62000000000000000000000000000000000000000000000000000000008152600401610a7e919061107d565b60405180910390fd5b81600160008673ffffffffffffffffffffffffffffffffffffffff1673ffffffffffffffffffffffffffffffffffffffff16815260200190815260200160002060008573ffffffffffffffffffffffffffffffffffffffff1673ffffffffffffffffffffffffffffffffffffffff168152602001908152602001600020819055508015610b74578273ffffffffffffffffffffffffffffffffffffffff168473ffffffffffffffffffffffffffffffffffffffff167f8c5be1e5ebec7d5bd14f71427d1e84f3dd0314c0f7b2291e5b200ac8c7c3b92584604051610b6b9190610f6f565b60405180910390a35b50505050565b600073ffffffffffffffffffffffffffffffffffffffff168373ffffffffffffffffffffffffffffffffffffffff1603610bcc578060026000828254610bc0919061119e565b92505081905550610c9f565b60008060008573ffffffffffffffffffffffffffffffffffffffff1673ffffffffffffffffffffffffffffffffffffffff16815260200190815260200160002054905081811015610c58578381836040517fe450d38c000000000000000000000000000000000000000000000000000000008152600401610c4f93929190611138565b60405180910390fd5b8181036000808673ffffffffffffffffffffffffffffffffffffffff1673ffffffffffffffffffffffffffffffffffffffff16815260200190815260200160002081905550505b600073ffffffffffffffffffffffffffffffffffffffff168273ffffffffffffffffffffffffffffffffffffffff1603610ce85780600260008282540392505081905550610d35565b806000808473ffffffffffffffffffffffffffffffffffffffff1673ffffffffffffffffffffffffffffffffffffffff168152602001908152602001600020600082825401925050819055505b8173ffffffffffffffffffffffffffffffffffffffff168373ffffffffffffffffffffffffffffffffffffffff167fddf252ad1be2c89b69c2b068fc378daa952ba7f163c4a11628f55a4df523b3ef83604051610d929190610f6f565b60405180910390a3505050565b600081519050919050565b600082825260208201905092915050565b60005b83811015610dd9578082015181840152602081019050610dbe565b60008484015250505050565b6000601f19601f8301169050919050565b6000610e0182610d9f565b610e0b8185610daa565b9350610e1b818560208601610dbb565b610e2481610de5565b840191505092915050565b60006020820190508181036000830152610e498184610df6565b905092915050565b600080fd5b600073ffffffffffffffffffffffffffffffffffffffff82169050919050565b6000610e8182610e56565b9050919050565b610e9181610e76565b8114610e9c57600080fd5b50565b600081359050610eae81610e88565b92915050565b6000819050919050565b610ec781610eb4565b8114610ed257600080fd5b50565b600081359050610ee481610ebe565b92915050565b60008060408385031215610f0157610f00610e51565b5b6000610f0f85828601610e9f565b9250506020610f2085828601610ed5565b9150509250929050565b60008115159050919050565b610f3f81610f2a565b82525050565b6000602082019050610f5a6000830184610f36565b92915050565b610f6981610eb4565b82525050565b6000602082019050610f846000830184610f60565b92915050565b600080600060608486031215610fa357610fa2610e51565b5b6000610fb186828701610e9f565b9350506020610fc286828701610e9f565b9250506040610fd386828701610ed5565b9150509250925092565b600060ff82169050919050565b610ff381610fdd565b82525050565b600060208201905061100e6000830184610fea565b92915050565b60006020828403121561102a57611029610e51565b5b600061103884828501610ed5565b91505092915050565b60006020828403121561105757611056610e51565b5b600061106584828501610e9f565b91505092915050565b61107781610e76565b82525050565b6000602082019050611092600083018461106e565b92915050565b600080604083850312156110af576110ae610e51565b5b60006110bd85828601610e9f565b92505060206110ce85828601610e9f565b9150509250929050565b7f4e487b7100000000000000000000000000000000000000000000000000000000600052602260045260246000fd5b6000600282049050600182168061111f57607f821691505b602082108103611132576111316110d8565b5b50919050565b600060608201905061114d600083018661106e565b61115a6020830185610f60565b6111676040830184610f60565b949350505050565b7f4e487b7100000000000000000000000000000000000000000000000000000000600052601160045260246000fd5b60006111a982610eb4565b91506111b483610eb4565b92508282019050808211156111cc576111cb61116f565b5b9291505056fea2646970667358221220c3730dad51f9762172254431026a3e4be6159f8cf91d381f428ea769624a48c164736f6c634300081b0033",
  "linkReferences": {},
  "deployedLinkReferences": {}
}